S0160000736F6674776172655F736C6176652E7372656329
S11300000C942A000C9434000C9434000C943400A6
S11300100C9434000C9434000C9434000C9434008C
S11300200C9434000C9434000C9434000C9434007C
S11300300C9434000C9434000C9434000C9434006C
S11300400C9434000C9434000C9434000C9434005C
S11300500C94340011241FBECFE5D4E0DEBFCDBF25
S11300600E9436000C9459000C9400000E94490030
S113007084B3816084BB85B38E7F85BB0E945500A9
S11300808823E1F325B391E0922795BB8C36F1F3F5
S1130090F5CF87B38F7E87BB87B38F7D87BB87B34D
S11300A08F7787BB80E48DB90895779BFECF8FB19E
S10900B00895F894FFCF4F
S9030000FC
