S0160000736F6674776172655F736C6176652E7372656329
S11300000C942A000C9434000C9434000C943400A6
S11300100C9434000C9434000C9434000C9434008C
S11300200C9434000C9434000C9434000C9434007C
S11300300C9434000C9434000C9434000C9434006C
S11300400C9434000C9434000C9434000C9434005C
S11300500C94340011241FBECFE5D4E0DEBFCDBF25
S11300600E9436000C944B000C9400008AB381600B
S11300708ABB8BB38E7F8BBB0E9447008C36E1F723
S11300802BB391E092279BBB8C36F1F3F5CF779B92
S10D0090FECF8FB10895F894FFCF5E
S9030000FC
