S0100000736F6674776172652E73726563A9
S11300000C942A000C9434000C9434000C943400A6
S11300100C9434000C9434000C9434000C9434008C
S11300200C9434000C9434000C9434000C9434007C
S11300300C9434000C9434000C9434000C9434006C
S11300400C9434000C9434000C9434000C9434005C
S11300500C94340011241FBECFE5D4E0DEBFCDBF25
S11300600E9436000C9445000C9400008AB38B7FE8
S11300708ABBDA9BFECF8CE60E944100DA99FECF60
S1110080F8CF8FB9779BFECF0895F894FFCF89
S9030000FC
