S0100000736F6674776172652E73726563A9
S11300000C942A000C9434000C9434000C943400A6
S11300100C9434000C9434000C9434000C9434008C
S11300200C9434000C9434000C9434000C9434007C
S11300300C9434000C9434000C9434000C9434006C
S11300400C9434000C9434000C9434000C9434005C
S11300500C94340011241FBECFE5D4E0DEBFCDBF25
S11300600E9436000C9453000C94000087B38E7FDA
S113007087BB0E944300B09BFECF8CE60E944F00DA
S1130080B099FECFF8CF87B3806187BB87B3806216
S113009087BB87B3806887BB81E58DB908958FB925
S10D00A0779BFECF0895F894FFCF7C
S9030000FC
